:1000000001308A00BB290000FF00030E8301A1001C
:100010000A08A0008A010408A2007708A300780853
:10002000A4007908A5007A08A600831383120B1E8A
:100030001B288B182C28220884002308F70024088A
:10004000F8002508F9002608FA0020088A00210E89
:100050008300FF0E7F0E09008A110A125E2803300A
:10006000B402031C3D2834308400831300080319B4
:100070003D283B283B28800B3A28080033080739E5
:10008000F700330CF800F80CF80C1F30F80578086E
:1000900035078400831336188317F801F80AF70A26
:1000A0005228F80DF70B5128B40803195A2878087C
:1000B00080045D28F8097808800508000F08FA0018
:1000C0000E08F7000F087A02031D5E287708A700C4
:1000D0007A08A80029082702AB002808AC002A08E3
:1000E000031C2A0FAC022808AA002708A9002C0824
:1000F000043C03189528FF3A031D82282B08143C62
:10010000031895282C08073C031C9528031D8C28F0
:100110002B08CF3C031C95282D14B0010330B300ED
:10012000C730B4002F20B30B90282D1CB7292C0802
:10013000023C0318BC28FF3A031DA2282B08E83C08
:100140000318BC282C08053C031CBC28031DAC2844
:100150002B08133C031CBC283008B3000130B4004A
:10016000B6012E30B5003E200330B300C730B400D6
:100170002F20B30BB628B00A2C08013C0318E02846
:10018000FF3A031DC7282B08263C0318E0282C083B
:10019000033C031CE028031DD1282B08833C031CCF
:1001A000E0283008B300B401B6012E30B5003E207F
:1001B0000330B300C730B4002F20B30BDA28B00AE5
:1001C00030080B3C031DB729B00100302E18013058
:1001D000B3000030AE180130B40000302E190130E9
:1001E000B5000030AE190130B60000302E1A0130D3
:1001F000B7000030AE1A0130B80000302E1B0130BD
:10020000B9003308BA003408BB003508BC00360812
:10021000BD003708BE003808BF003908C000400ED6
:10022000C200C20DC20DC030C2053F0EF700F70D6F
:10023000E030F7057708C2073E0EF700F030F7050B
:100240007708C2073D0DF700F70DF70DF830F705F9
:100250007708C2073C0DF700F70DFC30F70577086B
:10026000C20703103B0D42073A07C1004108F800DE
:100270007808B2000030AE1B0130B30000302F18F8
:100280000130B4000030AF180130B50000302F1934
:100290000130B6000030AF190130B7003308B800A4
:1002A0003408B9003508BA003608BB003708BC006E
:1002B0003C0EBE00F030BE053B0DF700F70DF70D0C
:1002C000F830F7057708BE073A0DF700F70DFC3058
:1002D000F7057708BE070310390D3E073807BD0044
:1002E0003D08F8007808B300C830B300333084000C
:1002F00083130008031989290630F800F701F70B6A
:100300007F29F80B7E297B30F700F70B8529800BBE
:100310007C293208B3005730B400B41BA0290F3039
:10032000F700330EF7050A30770203189A293030A8
:10033000F7079C293408F70777080C1E9D299900B8
:100340000F30B3050A3033020318A8293030AA2928
:10035000B4133408B30733080C1EAC2999002030BD
:100360000C1EB02999000A300C1EB42999008B107C
:100370008A110A121B28840183131F3083058130E0
:1003800083169900A6309800903083129800B0012F
:1003900083161F149F141F159F1107309C00B53042
:1003A000831290008316011383120B16C0308B0446
:0403B000D8296300E5
:02400E003A3F37
:00000001FF
;PIC16F877A
;CRC=C758  CREATED="17-dic.-21 19:31"
